{
  "contractName": "BottleOwner",
  "abi": [
    {
      "inputs": [],
      "payable": false,
      "stateMutability": "nonpayable",
      "type": "constructor"
    },
    {
      "anonymous": false,
      "inputs": [
        {
          "indexed": false,
          "name": "_address",
          "type": "address"
        }
      ],
      "name": "BottleOwnerAdded",
      "type": "event"
    },
    {
      "anonymous": false,
      "inputs": [
        {
          "indexed": false,
          "name": "_address",
          "type": "address"
        }
      ],
      "name": "BottleOwnerRemoved",
      "type": "event"
    },
    {
      "constant": true,
      "inputs": [
        {
          "name": "_address",
          "type": "address"
        }
      ],
      "name": "isBottleOwner",
      "outputs": [
        {
          "name": "",
          "type": "bool"
        }
      ],
      "payable": false,
      "stateMutability": "view",
      "type": "function"
    },
    {
      "constant": false,
      "inputs": [
        {
          "name": "_address",
          "type": "address"
        }
      ],
      "name": "addBottleOwner",
      "outputs": [],
      "payable": false,
      "stateMutability": "nonpayable",
      "type": "function"
    },
    {
      "constant": false,
      "inputs": [],
      "name": "renounceBottleOwner",
      "outputs": [],
      "payable": false,
      "stateMutability": "nonpayable",
      "type": "function"
    }
  ],
  "bytecode": "0x608060405234801561001057600080fd5b506100293361002e640100000000026401000000009004565b610208565b61004f8160006100b5640100000000026103ac179091906401000000009004565b7fcc3ade8ba5209821ccb68e35d80019d469e52d1d29aec85ff690078ce14c4d2c81604051808273ffffffffffffffffffffffffffffffffffffffff1673ffffffffffffffffffffffffffffffffffffffff16815260200191505060405180910390a150565b600073ffffffffffffffffffffffffffffffffffffffff168173ffffffffffffffffffffffffffffffffffffffff16141515156100f157600080fd5b61010a8282610174640100000000026401000000009004565b15151561011657600080fd5b60018260000160008373ffffffffffffffffffffffffffffffffffffffff1673ffffffffffffffffffffffffffffffffffffffff16815260200190815260200160002060006101000a81548160ff0219169083151502179055505050565b60008073ffffffffffffffffffffffffffffffffffffffff168273ffffffffffffffffffffffffffffffffffffffff16141515156101b157600080fd5b8260000160008373ffffffffffffffffffffffffffffffffffffffff1673ffffffffffffffffffffffffffffffffffffffff16815260200190815260200160002060009054906101000a900460ff16905092915050565b610488806102176000396000f3fe608060405260043610610057576000357c0100000000000000000000000000000000000000000000000000000000900463ffffffff16806329c44f191461005c578063573a9928146100735780637e21b0f5146100c4575b600080fd5b34801561006857600080fd5b5061007161012d565b005b34801561007f57600080fd5b506100c26004803603602081101561009657600080fd5b81019080803573ffffffffffffffffffffffffffffffffffffffff169060200190929190505050610138565b005b3480156100d057600080fd5b50610113600480360360208110156100e757600080fd5b81019080803573ffffffffffffffffffffffffffffffffffffffff169060200190929190505050610158565b604051808215151515815260200191505060405180910390f35b61013633610175565b565b61014133610158565b151561014c57600080fd5b610155816101ef565b50565b600061016e82600061026990919063ffffffff16565b9050919050565b6101898160006102fd90919063ffffffff16565b7fb7c1f1cb44facca57c485bdacecaceec13dec2a5261f0fd8410f4980ae90cd7281604051808273ffffffffffffffffffffffffffffffffffffffff1673ffffffffffffffffffffffffffffffffffffffff16815260200191505060405180910390a150565b6102038160006103ac90919063ffffffff16565b7fcc3ade8ba5209821ccb68e35d80019d469e52d1d29aec85ff690078ce14c4d2c81604051808273ffffffffffffffffffffffffffffffffffffffff1673ffffffffffffffffffffffffffffffffffffffff16815260200191505060405180910390a150565b60008073ffffffffffffffffffffffffffffffffffffffff168273ffffffffffffffffffffffffffffffffffffffff16141515156102a657600080fd5b8260000160008373ffffffffffffffffffffffffffffffffffffffff1673ffffffffffffffffffffffffffffffffffffffff16815260200190815260200160002060009054906101000a900460ff16905092915050565b600073ffffffffffffffffffffffffffffffffffffffff168173ffffffffffffffffffffffffffffffffffffffff161415151561033957600080fd5b6103438282610269565b151561034e57600080fd5b60008260000160008373ffffffffffffffffffffffffffffffffffffffff1673ffffffffffffffffffffffffffffffffffffffff16815260200190815260200160002060006101000a81548160ff0219169083151502179055505050565b600073ffffffffffffffffffffffffffffffffffffffff168173ffffffffffffffffffffffffffffffffffffffff16141515156103e857600080fd5b6103f28282610269565b1515156103fe57600080fd5b60018260000160008373ffffffffffffffffffffffffffffffffffffffff1673ffffffffffffffffffffffffffffffffffffffff16815260200190815260200160002060006101000a81548160ff021916908315150217905550505056fea165627a7a72305820e36cb992c706fd3cb9fb877930b09dc32c525caf0cc8a10ee999a6dcf15cf1870029",
  "source": "pragma solidity ^0.5.0;\n\n// Import the library 'Roles'\nimport \"../Roles.sol\";\n\n// Define a contract 'ConsumerRole' to manage this role - add, remove, check\ncontract BottleOwner {\n    using Roles for Roles.Role;\n\n    // Define 2 events, one for Adding, and other for Removing\n    event BottleOwnerAdded(address _address);\n    event BottleOwnerRemoved(address _address);\n\n    // Define a struct 'bottle owners' by inheriting from 'Roles' library, struct Role\n    Roles.Role private bottleOwners;\n\n    // In the constructor make the address that deploys this contract the 1st grape owner\n    constructor() public {\n        _addBottleOwner(msg.sender);\n    }\n\n    // Define a modifier that checks to see if msg.sender has the appropriate role\n    modifier onlyBottleOwner() {\n        require(isBottleOwner(msg.sender));\n        _;\n    }\n\n    // Define a function 'isBottleOwner' to check this role\n    function isBottleOwner(address _address) public view returns (bool) {\n        return bottleOwners.has(_address);\n    }\n\n    // Define a function 'addBottleOwner' that adds this role\n    function addBottleOwner(address _address) public onlyBottleOwner {\n        _addBottleOwner(_address);\n    }\n\n    // Define a function 'renounceBottleOwner' to renounce this role\n    function renounceBottleOwner() public {\n        _removeBottleOwner(msg.sender);\n    }\n\n    // Define an internal function '_addBottleOwner' to add this role, called by 'addConsumer'\n    function _addBottleOwner(address _address) internal {\n        bottleOwners.add(_address);\n        emit BottleOwnerAdded(_address);\n    }\n\n    // Define an internal function '_removeConsumer' to remove this role, called by 'removeConsumer'\n    function _removeBottleOwner(address _address) internal {\n        bottleOwners.remove(_address);\n        emit BottleOwnerRemoved(_address);\n    }\n}",
  "sourcePath": "/Users/py/IdeaProjects/wine-supply-chain/contracts/accesscontrol/wine/BottleOwner.sol",
  "compiler": {
    "name": "solc",
    "version": "0.5.0+commit.1d4f565a.Emscripten.clang"
  },
  "schemaVersion": "3.0.2",
  "updatedAt": "2019-03-17T08:51:41.067Z",
  "devdoc": {
    "methods": {}
  },
  "userdoc": {
    "methods": {}
  }
}