{
  "contractName": "GrapeOwner",
  "abi": [
    {
      "inputs": [],
      "payable": false,
      "stateMutability": "nonpayable",
      "type": "constructor"
    },
    {
      "anonymous": false,
      "inputs": [
        {
          "indexed": false,
          "name": "_address",
          "type": "address"
        }
      ],
      "name": "GrapeOwnerAdded",
      "type": "event"
    },
    {
      "anonymous": false,
      "inputs": [
        {
          "indexed": false,
          "name": "_address",
          "type": "address"
        }
      ],
      "name": "GrapeOwnerRemoved",
      "type": "event"
    },
    {
      "constant": true,
      "inputs": [
        {
          "name": "_address",
          "type": "address"
        }
      ],
      "name": "isGrapeOwner",
      "outputs": [
        {
          "name": "",
          "type": "bool"
        }
      ],
      "payable": false,
      "stateMutability": "view",
      "type": "function"
    },
    {
      "constant": false,
      "inputs": [
        {
          "name": "_address",
          "type": "address"
        }
      ],
      "name": "addGrapeOwner",
      "outputs": [],
      "payable": false,
      "stateMutability": "nonpayable",
      "type": "function"
    },
    {
      "constant": false,
      "inputs": [],
      "name": "renounceGrapeOwner",
      "outputs": [],
      "payable": false,
      "stateMutability": "nonpayable",
      "type": "function"
    }
  ],
  "bytecode": "0x608060405234801561001057600080fd5b506100293361002e640100000000026401000000009004565b610208565b61004f8160006100b5640100000000026102fd179091906401000000009004565b7f99dd619b038d8b8e05f80bb8a74ec76178fef3ea0abba03c2b56bd73123e6c2781604051808273ffffffffffffffffffffffffffffffffffffffff1673ffffffffffffffffffffffffffffffffffffffff16815260200191505060405180910390a150565b600073ffffffffffffffffffffffffffffffffffffffff168173ffffffffffffffffffffffffffffffffffffffff16141515156100f157600080fd5b61010a8282610174640100000000026401000000009004565b15151561011657600080fd5b60018260000160008373ffffffffffffffffffffffffffffffffffffffff1673ffffffffffffffffffffffffffffffffffffffff16815260200190815260200160002060006101000a81548160ff0219169083151502179055505050565b60008073ffffffffffffffffffffffffffffffffffffffff168273ffffffffffffffffffffffffffffffffffffffff16141515156101b157600080fd5b8260000160008373ffffffffffffffffffffffffffffffffffffffff1673ffffffffffffffffffffffffffffffffffffffff16815260200190815260200160002060009054906101000a900460ff16905092915050565b610488806102176000396000f3fe608060405260043610610057576000357c0100000000000000000000000000000000000000000000000000000000900463ffffffff1680634f7289581461005c578063cb09d641146100ad578063f95bd797146100c4575b600080fd5b34801561006857600080fd5b506100ab6004803603602081101561007f57600080fd5b81019080803573ffffffffffffffffffffffffffffffffffffffff16906020019092919050505061012d565b005b3480156100b957600080fd5b506100c261014d565b005b3480156100d057600080fd5b50610113600480360360208110156100e757600080fd5b81019080803573ffffffffffffffffffffffffffffffffffffffff169060200190929190505050610158565b604051808215151515815260200191505060405180910390f35b61013633610158565b151561014157600080fd5b61014a81610175565b50565b610156336101ef565b565b600061016e82600061026990919063ffffffff16565b9050919050565b6101898160006102fd90919063ffffffff16565b7f99dd619b038d8b8e05f80bb8a74ec76178fef3ea0abba03c2b56bd73123e6c2781604051808273ffffffffffffffffffffffffffffffffffffffff1673ffffffffffffffffffffffffffffffffffffffff16815260200191505060405180910390a150565b6102038160006103ad90919063ffffffff16565b7f0a4ef2c92f279fb72699e9b80a90e5f0a109969db0dc02c0281cfc9071f6747d81604051808273ffffffffffffffffffffffffffffffffffffffff1673ffffffffffffffffffffffffffffffffffffffff16815260200191505060405180910390a150565b60008073ffffffffffffffffffffffffffffffffffffffff168273ffffffffffffffffffffffffffffffffffffffff16141515156102a657600080fd5b8260000160008373ffffffffffffffffffffffffffffffffffffffff1673ffffffffffffffffffffffffffffffffffffffff16815260200190815260200160002060009054906101000a900460ff16905092915050565b600073ffffffffffffffffffffffffffffffffffffffff168173ffffffffffffffffffffffffffffffffffffffff161415151561033957600080fd5b6103438282610269565b15151561034f57600080fd5b60018260000160008373ffffffffffffffffffffffffffffffffffffffff1673ffffffffffffffffffffffffffffffffffffffff16815260200190815260200160002060006101000a81548160ff0219169083151502179055505050565b600073ffffffffffffffffffffffffffffffffffffffff168173ffffffffffffffffffffffffffffffffffffffff16141515156103e957600080fd5b6103f38282610269565b15156103fe57600080fd5b60008260000160008373ffffffffffffffffffffffffffffffffffffffff1673ffffffffffffffffffffffffffffffffffffffff16815260200190815260200160002060006101000a81548160ff021916908315150217905550505056fea165627a7a723058207669c4437db9a4970aafa2ac6327dbd2c6596ee353edba822ca4776a79e9f0510029",
  "source": "pragma solidity ^0.5.0;\n\n// Import the library 'Roles'\nimport \"../Roles.sol\";\n\n// Define a contract 'ConsumerRole' to manage this role - add, remove, check\ncontract GrapeOwner {\n    using Roles for Roles.Role;\n\n    // Define 2 events, one for Adding, and other for Removing\n    event GrapeOwnerAdded(address _address);\n    event GrapeOwnerRemoved(address _address);\n\n    // Define a struct 'grape owners' by inheriting from 'Roles' library, struct Role\n    Roles.Role private grapeOwners;\n\n    // In the constructor make the address that deploys this contract the 1st grape owner\n    constructor() public {\n        _addGrapeOwner(msg.sender);\n    }\n\n    // Define a modifier that checks to see if msg.sender has the appropriate role\n    modifier onlyGrapeOwner() {\n        require(isGrapeOwner(msg.sender));\n        _;\n    }\n\n    // Define a function 'isGrapeOwner' to check this role\n    function isGrapeOwner(address _address) public view returns (bool) {\n        return grapeOwners.has(_address);\n    }\n\n    // Define a function 'addGrapeOwner' that adds this role\n    function addGrapeOwner(address _address) public onlyGrapeOwner {\n        _addGrapeOwner(_address);\n    }\n\n    // Define a function 'renounceGrapeOwner' to renounce this role\n    function renounceGrapeOwner() public {\n        _removeGrapeOwner(msg.sender);\n    }\n\n    // Define an internal function '_addGrapeOwner' to add this role, called by 'addConsumer'\n    function _addGrapeOwner(address _address) internal {\n        grapeOwners.add(_address);\n        emit GrapeOwnerAdded(_address);\n    }\n\n    // Define an internal function '_removeConsumer' to remove this role, called by 'removeConsumer'\n    function _removeGrapeOwner(address _address) internal {\n        grapeOwners.remove(_address);\n        emit GrapeOwnerRemoved(_address);\n    }\n}",
  "sourcePath": "/Users/py/IdeaProjects/wine-supply-chain/contracts/accesscontrol/wine/GrapeOwner.sol",
  "compiler": {
    "name": "solc",
    "version": "0.5.0+commit.1d4f565a.Emscripten.clang"
  },
  "schemaVersion": "3.0.2",
  "updatedAt": "2019-03-17T08:51:41.064Z",
  "devdoc": {
    "methods": {}
  },
  "userdoc": {
    "methods": {}
  }
}