{
  "contractName": "Wine",
  "abi": [
    {
      "inputs": [],
      "payable": false,
      "stateMutability": "nonpayable",
      "type": "constructor",
      "signature": "constructor"
    },
    {
      "anonymous": false,
      "inputs": [
        {
          "indexed": false,
          "name": "farmId",
          "type": "uint256"
        }
      ],
      "name": "FarmRegistered",
      "type": "event",
      "signature": "0xadcbbe61c5d6ff6673093971416854cb6caf33849661e18c72646f0e1ca01bbb"
    },
    {
      "anonymous": false,
      "inputs": [
        {
          "indexed": false,
          "name": "grapeId",
          "type": "uint256"
        }
      ],
      "name": "GrapeHarvested",
      "type": "event",
      "signature": "0xe98cb48b7c65f60e2a8d0b20a8dbaac7cc3c2c897044fe92d5f5d3f97382ca75"
    },
    {
      "anonymous": false,
      "inputs": [
        {
          "indexed": false,
          "name": "grapeId",
          "type": "uint256"
        }
      ],
      "name": "GrapePressed",
      "type": "event",
      "signature": "0xced135a0bd149c52016b64e0ccaf9051975eabce7a661dbf246ea4c874e810a5"
    },
    {
      "anonymous": false,
      "inputs": [
        {
          "indexed": false,
          "name": "grapeId",
          "type": "uint256"
        }
      ],
      "name": "GrapeFermented",
      "type": "event",
      "signature": "0xab4e083d47498761f5a8b87ff77047fdc1fc57ebedec794b2a100a2432687d4d"
    },
    {
      "anonymous": false,
      "inputs": [
        {
          "indexed": false,
          "name": "upc",
          "type": "uint256"
        }
      ],
      "name": "BottleOwned",
      "type": "event",
      "signature": "0x828959715a11324307775d7f987630518a1e7c1fe335e54c45d7b6ba188f40d1"
    },
    {
      "anonymous": false,
      "inputs": [
        {
          "indexed": false,
          "name": "upc",
          "type": "uint256"
        }
      ],
      "name": "BottleForSale",
      "type": "event",
      "signature": "0x6904282de368bf5aefab4b35cb4ebadac5101c8c247bde31c582973491908f96"
    },
    {
      "anonymous": false,
      "inputs": [
        {
          "indexed": false,
          "name": "upc",
          "type": "uint256"
        }
      ],
      "name": "BottleSold",
      "type": "event",
      "signature": "0x06c8b9036ad35e1bc39258db53d9a09487eccffbff2faef0d7c27c73d9549af8"
    },
    {
      "anonymous": false,
      "inputs": [
        {
          "indexed": false,
          "name": "upc",
          "type": "uint256"
        }
      ],
      "name": "BottleShipped",
      "type": "event",
      "signature": "0xeadb31747ffb466bab04b4eab11e35f07d9753cf4391303cd8b043239cf1e0f6"
    },
    {
      "anonymous": false,
      "inputs": [
        {
          "indexed": false,
          "name": "upc",
          "type": "uint256"
        }
      ],
      "name": "BottleConsumed",
      "type": "event",
      "signature": "0x1089cc46981bb4f9492cd678d98501379feafc55495189d4ffae0521e1a986b2"
    },
    {
      "constant": false,
      "inputs": [
        {
          "name": "_farmName",
          "type": "string"
        },
        {
          "name": "_locationName",
          "type": "string"
        },
        {
          "name": "_locationLong",
          "type": "string"
        },
        {
          "name": "_locationLat",
          "type": "string"
        },
        {
          "name": "_farmDescription",
          "type": "string"
        }
      ],
      "name": "registerFarm",
      "outputs": [],
      "payable": false,
      "stateMutability": "nonpayable",
      "type": "function",
      "signature": "0x3f50e5af"
    },
    {
      "constant": true,
      "inputs": [
        {
          "name": "_farmId",
          "type": "uint256"
        }
      ],
      "name": "getFarm",
      "outputs": [
        {
          "name": "farmId",
          "type": "uint256"
        },
        {
          "name": "name",
          "type": "string"
        },
        {
          "name": "locationName",
          "type": "string"
        },
        {
          "name": "longitude",
          "type": "string"
        },
        {
          "name": "latitude",
          "type": "string"
        },
        {
          "name": "owner",
          "type": "address"
        },
        {
          "name": "description",
          "type": "string"
        }
      ],
      "payable": false,
      "stateMutability": "view",
      "type": "function",
      "signature": "0x53fd88bf"
    },
    {
      "constant": false,
      "inputs": [
        {
          "name": "_name",
          "type": "string"
        },
        {
          "name": "_vintageYear",
          "type": "uint256"
        },
        {
          "name": "_notes",
          "type": "string"
        },
        {
          "name": "_farmId",
          "type": "uint256"
        }
      ],
      "name": "harvestGrape",
      "outputs": [],
      "payable": false,
      "stateMutability": "nonpayable",
      "type": "function",
      "signature": "0x488fd875"
    },
    {
      "constant": false,
      "inputs": [
        {
          "name": "_grapeId",
          "type": "uint256"
        }
      ],
      "name": "pressGrape",
      "outputs": [],
      "payable": false,
      "stateMutability": "nonpayable",
      "type": "function",
      "signature": "0xda88accb"
    },
    {
      "constant": false,
      "inputs": [
        {
          "name": "_grapeId",
          "type": "uint256"
        }
      ],
      "name": "fermentGrape",
      "outputs": [],
      "payable": false,
      "stateMutability": "nonpayable",
      "type": "function",
      "signature": "0x8ccd7b18"
    },
    {
      "constant": true,
      "inputs": [
        {
          "name": "_grapeId",
          "type": "uint256"
        }
      ],
      "name": "getGrape",
      "outputs": [
        {
          "name": "grapeId",
          "type": "uint256"
        },
        {
          "name": "name",
          "type": "string"
        },
        {
          "name": "vintageYear",
          "type": "uint256"
        },
        {
          "name": "state",
          "type": "string"
        },
        {
          "name": "notes",
          "type": "string"
        },
        {
          "name": "farmId",
          "type": "uint256"
        },
        {
          "name": "owner",
          "type": "address"
        }
      ],
      "payable": false,
      "stateMutability": "view",
      "type": "function",
      "signature": "0xfb5aa072"
    },
    {
      "constant": false,
      "inputs": [
        {
          "name": "_grapeId",
          "type": "uint256"
        }
      ],
      "name": "createBottle",
      "outputs": [],
      "payable": false,
      "stateMutability": "nonpayable",
      "type": "function",
      "signature": "0x065c20fb"
    },
    {
      "constant": false,
      "inputs": [
        {
          "name": "_upc",
          "type": "uint256"
        },
        {
          "name": "_price",
          "type": "uint256"
        }
      ],
      "name": "addBottleForSale",
      "outputs": [],
      "payable": false,
      "stateMutability": "nonpayable",
      "type": "function",
      "signature": "0xa64d5a93"
    },
    {
      "constant": false,
      "inputs": [
        {
          "name": "_upc",
          "type": "uint256"
        }
      ],
      "name": "buyBottle",
      "outputs": [],
      "payable": true,
      "stateMutability": "payable",
      "type": "function",
      "signature": "0xb314fac2"
    },
    {
      "constant": false,
      "inputs": [
        {
          "name": "_upc",
          "type": "uint256"
        }
      ],
      "name": "shipBottle",
      "outputs": [],
      "payable": false,
      "stateMutability": "nonpayable",
      "type": "function",
      "signature": "0x2c6b4a3e"
    },
    {
      "constant": false,
      "inputs": [
        {
          "name": "_upc",
          "type": "uint256"
        }
      ],
      "name": "receiveBottle",
      "outputs": [],
      "payable": false,
      "stateMutability": "nonpayable",
      "type": "function",
      "signature": "0xfbbb4069"
    },
    {
      "constant": false,
      "inputs": [
        {
          "name": "_upc",
          "type": "uint256"
        }
      ],
      "name": "consumeBottle",
      "outputs": [],
      "payable": false,
      "stateMutability": "nonpayable",
      "type": "function",
      "signature": "0xb4131d32"
    },
    {
      "constant": true,
      "inputs": [
        {
          "name": "_upc",
          "type": "uint256"
        }
      ],
      "name": "getBottle",
      "outputs": [
        {
          "name": "upc",
          "type": "uint256"
        },
        {
          "name": "sku",
          "type": "uint256"
        },
        {
          "name": "productId",
          "type": "uint256"
        },
        {
          "name": "price",
          "type": "uint256"
        },
        {
          "name": "owner",
          "type": "address"
        },
        {
          "name": "buyer",
          "type": "address"
        },
        {
          "name": "state",
          "type": "string"
        },
        {
          "name": "grapeId",
          "type": "uint256"
        }
      ],
      "payable": false,
      "stateMutability": "view",
      "type": "function",
      "signature": "0xd54db8a7"
    }
  ],
  "bytecode": "0x608060405234801561001057600080fd5b50336000806101000a81548173ffffffffffffffffffffffffffffffffffffffff021916908373ffffffffffffffffffffffffffffffffffffffff1602179055506000600181905550600060028190555060006004819055506147da806100786000396000f3fe6080604052600436106100c5576000357c0100000000000000000000000000000000000000000000000000000000900463ffffffff168063065c20fb146100ca5780632c6b4a3e146101055780633f50e5af14610140578063488fd8751461046457806353fd88bf146105d75780638ccd7b1814610875578063a64d5a93146108b0578063b314fac2146108f5578063b4131d3214610923578063d54db8a71461095e578063da88accb14610a9b578063fb5aa07214610ad6578063fbbb406914610caa575b600080fd5b3480156100d657600080fd5b50610103600480360360208110156100ed57600080fd5b8101908080359060200190929190505050610ce5565b005b34801561011157600080fd5b5061013e6004803603602081101561012857600080fd5b81019080803590602001909291905050506118c5565b005b34801561014c57600080fd5b50610462600480360360a081101561016357600080fd5b810190808035906020019064010000000081111561018057600080fd5b82018360208201111561019257600080fd5b803590602001918460018302840111640100000000831117156101b457600080fd5b91908080601f016020809104026020016040519081016040528093929190818152602001838380828437600081840152601f19601f8201169050808301925050505050505091929192908035906020019064010000000081111561021757600080fd5b82018360208201111561022957600080fd5b8035906020019184600183028401116401000000008311171561024b57600080fd5b91908080601f016020809104026020016040519081016040528093929190818152602001838380828437600081840152601f19601f820116905080830192505050505050509192919290803590602001906401000000008111156102ae57600080fd5b8201836020820111156102c057600080fd5b803590602001918460018302840111640100000000831117156102e257600080fd5b91908080601f016020809104026020016040519081016040528093929190818152602001838380828437600081840152601f19601f8201169050808301925050505050505091929192908035906020019064010000000081111561034557600080fd5b82018360208201111561035757600080fd5b8035906020019184600183028401116401000000008311171561037957600080fd5b91908080601f016020809104026020016040519081016040528093929190818152602001838380828437600081840152601f19601f820116905080830192505050505050509192919290803590602001906401000000008111156103dc57600080fd5b8201836020820111156103ee57600080fd5b8035906020019184600183028401116401000000008311171561041057600080fd5b91908080601f016020809104026020016040519081016040528093929190818152602001838380828437600081840152601f19601f820116905080830192505050505050509192919290505050611bc9565b005b34801561047057600080fd5b506105d56004803603608081101561048757600080fd5b81019080803590602001906401000000008111156104a457600080fd5b8201836020820111156104b657600080fd5b803590602001918460018302840111640100000000831117156104d857600080fd5b91908080601f016020809104026020016040519081016040528093929190818152602001838380828437600081840152601f19601f820116905080830192505050505050509192919290803590602001909291908035906020019064010000000081111561054557600080fd5b82018360208201111561055757600080fd5b8035906020019184600183028401116401000000008311171561057957600080fd5b91908080601f016020809104026020016040519081016040528093929190818152602001838380828437600081840152601f19601f82011690508083019250505050505050919291929080359060200190929190505050611d81565b005b3480156105e357600080fd5b50610610600480360360208110156105fa57600080fd5b81019080803590602001909291905050506124af565b60405180888152602001806020018060200180602001806020018773ffffffffffffffffffffffffffffffffffffffff1673ffffffffffffffffffffffffffffffffffffffff1681526020018060200186810386528c818151815260200191508051906020019080838360005b8381101561069857808201518184015260208101905061067d565b50505050905090810190601f1680156106c55780820380516001836020036101000a031916815260200191505b5086810385528b818151815260200191508051906020019080838360005b838110156106fe5780820151818401526020810190506106e3565b50505050905090810190601f16801561072b5780820380516001836020036101000a031916815260200191505b5086810384528a818151815260200191508051906020019080838360005b83811015610764578082015181840152602081019050610749565b50505050905090810190601f1680156107915780820380516001836020036101000a031916815260200191505b50868103835289818151815260200191508051906020019080838360005b838110156107ca5780820151818401526020810190506107af565b50505050905090810190601f1680156107f75780820380516001836020036101000a031916815260200191505b50868103825287818151815260200191508051906020019080838360005b83811015610830578082015181840152602081019050610815565b50505050905090810190601f16801561085d5780820380516001836020036101000a031916815260200191505b509c5050505050505050505050505060405180910390f35b34801561088157600080fd5b506108ae6004803603602081101561089857600080fd5b810190808035906020019092919050505061294c565b005b3480156108bc57600080fd5b506108f3600480360360408110156108d357600080fd5b810190808035906020019092919080359060200190929190505050612c50565b005b6109216004803603602081101561090b57600080fd5b8101908080359060200190929190505050612fea565b005b34801561092f57600080fd5b5061095c6004803603602081101561094657600080fd5b8101908080359060200190929190505050613530565b005b34801561096a57600080fd5b506109976004803603602081101561098157600080fd5b8101908080359060200190929190505050613834565b604051808981526020018881526020018781526020018681526020018573ffffffffffffffffffffffffffffffffffffffff1673ffffffffffffffffffffffffffffffffffffffff1681526020018473ffffffffffffffffffffffffffffffffffffffff1673ffffffffffffffffffffffffffffffffffffffff16815260200180602001838152602001828103825284818151815260200191508051906020019080838360005b83811015610a59578082015181840152602081019050610a3e565b50505050905090810190601f168015610a865780820380516001836020036101000a031916815260200191505b50995050505050505050505060405180910390f35b348015610aa757600080fd5b50610ad460048036036020811015610abe57600080fd5b8101908080359060200190929190505050613c0e565b005b348015610ae257600080fd5b50610b0f60048036036020811015610af957600080fd5b8101908080359060200190929190505050613f12565b604051808881526020018060200187815260200180602001806020018681526020018573ffffffffffffffffffffffffffffffffffffffff1673ffffffffffffffffffffffffffffffffffffffff16815260200184810384528a818151815260200191508051906020019080838360005b83811015610b9b578082015181840152602081019050610b80565b50505050905090810190601f168015610bc85780820380516001836020036101000a031916815260200191505b50848103835288818151815260200191508051906020019080838360005b83811015610c01578082015181840152602081019050610be6565b50505050905090810190601f168015610c2e5780820380516001836020036101000a031916815260200191505b50848103825287818151815260200191508051906020019080838360005b83811015610c67578082015181840152602081019050610c4c565b50505050905090810190601f168015610c945780820380516001836020036101000a031916815260200191505b509a505050505050505050505060405180910390f35b348015610cb657600080fd5b50610ce360048036036020811015610ccd57600080fd5b8101908080359060200190929190505050614302565b005b8060006006600083815260200190815260200160002060000154111515610d9a576040517f08c379a00000000000000000000000000000000000000000000000000000000081526004018080602001828103825260228152602001807f47726170652077697468207468697320696420646f6573206e6f74206578697381526020017f742e00000000000000000000000000000000000000000000000000000000000081525060400191505060405180910390fd5b816002806002811115610da957fe5b6006600084815260200190815260200160002060050160009054906101000a900460ff166002811115610dd857fe5b141515610e73576040517f08c379a000000000000000000000000000000000000000000000000000000000815260040180806020018281038252602b8152602001807f43757272656e7420677261706520737461746520666f7262696473207468697381526020017f206f7065726174696f6e2e00000000000000000000000000000000000000000081525060400191505060405180910390fd5b6006600085815260200190815260200160002060030160009054906101000a900473ffffffffffffffffffffffffffffffffffffffff168073ffffffffffffffffffffffffffffffffffffffff163373ffffffffffffffffffffffffffffffffffffffff16141515610f73576040517f08c379a000000000000000000000000000000000000000000000000000000000815260040180806020018281038252602d8152602001807f43757272656e742063616c6c65722063616e206e6f7420696e766f6b6520746881526020017f6973206f7065726174696f6e2e0000000000000000000000000000000000000081525060400191505060405180910390fd5b60016002540160028190555060016003540160038190555061010060405190810160405280600254815260200160035481526020016002546003540181526020016006600088815260200190815260200160002060e0604051908101604052908160008201548152602001600182018054600181600116156101000203166002900480601f0160208091040260200160405190810160405280929190818152602001828054600181600116156101000203166002900480156110765780601f1061104b57610100808354040283529160200191611076565b820191906000526020600020905b81548152906001019060200180831161105957829003601f168201915b50505050508152602001600282015481526020016003820160009054906101000a900473ffffffffffffffffffffffffffffffffffffffff1673ffffffffffffffffffffffffffffffffffffffff1673ffffffffffffffffffffffffffffffffffffffff168152602001600482018054600181600116156101000203166002900480601f0160208091040260200160405190810160405280929190818152602001828054600181600116156101000203166002900480156111785780601f1061114d57610100808354040283529160200191611178565b820191906000526020600020905b81548152906001019060200180831161115b57829003601f168201915b505050505081526020016005820160009054906101000a900460ff16600281111561119f57fe5b60028111156111aa57fe5b81526020016006820160a0604051908101604052908160008201548152602001600182018054600181600116156101000203166002900480601f0160208091040260200160405190810160405280929190818152602001828054600181600116156101000203166002900480156112625780601f1061123757610100808354040283529160200191611262565b820191906000526020600020905b81548152906001019060200180831161124557829003601f168201915b505050505081526020016002820160009054906101000a900473ffffffffffffffffffffffffffffffffffffffff1673ffffffffffffffffffffffffffffffffffffffff1673ffffffffffffffffffffffffffffffffffffffff168152602001600382018054600181600116156101000203166002900480601f01602080910402602001604051908101604052809291908181526020018280546001816001161561010002031660029004801561135a5780601f1061132f5761010080835404028352916020019161135a565b820191906000526020600020905b81548152906001019060200180831161133d57829003601f168201915b505050505081526020016004820160606040519081016040529081600082018054600181600116156101000203166002900480601f01602080910402602001604051908101604052809291908181526020018280546001816001161561010002031660029004801561140d5780601f106113e25761010080835404028352916020019161140d565b820191906000526020600020905b8154815290600101906020018083116113f057829003601f168201915b50505050508152602001600182018054600181600116156101000203166002900480601f0160208091040260200160405190810160405280929190818152602001828054600181600116156101000203166002900480156114af5780601f10611484576101008083540402835291602001916114af565b820191906000526020600020905b81548152906001019060200180831161149257829003601f168201915b50505050508152602001600282018054600181600116156101000203166002900480601f0160208091040260200160405190810160405280929190818152602001828054600181600116156101000203166002900480156115515780601f1061152657610100808354040283529160200191611551565b820191906000526020600020905b81548152906001019060200180831161153457829003601f168201915b50505050508152505081525050815250508152602001600081526020016000600481111561157b57fe5b8152602001600073ffffffffffffffffffffffffffffffffffffffff1681526020013373ffffffffffffffffffffffffffffffffffffffff168152506007600060025481526020019081526020016000206000820151816000015560208201518160010155604082015181600201556060820151816003016000820151816000015560208201518160010190805190602001906116199291906146e7565b506040820151816002015560608201518160030160006101000a81548173ffffffffffffffffffffffffffffffffffffffff021916908373ffffffffffffffffffffffffffffffffffffffff16021790555060808201518160040190805190602001906116879291906146e7565b5060a08201518160050160006101000a81548160ff021916908360028111156116ac57fe5b021790555060c0820151816006016000820151816000015560208201518160010190805190602001906116e09291906146e7565b5060408201518160020160006101000a81548173ffffffffffffffffffffffffffffffffffffffff021916908373ffffffffffffffffffffffffffffffffffffffff16021790555060608201518160030190805190602001906117449291906146e7565b50608082015181600401600082015181600001908051906020019061176a9291906146e7565b5060208201518160010190805190602001906117879291906146e7565b5060408201518160020190805190602001906117a49291906146e7565b505050505050506080820151816010015560a08201518160110160006101000a81548160ff021916908360048111156117d957fe5b021790555060c08201518160110160016101000a81548173ffffffffffffffffffffffffffffffffffffffff021916908373ffffffffffffffffffffffffffffffffffffffff16021790555060e08201518160120160006101000a81548173ffffffffffffffffffffffffffffffffffffffff021916908373ffffffffffffffffffffffffffffffffffffffff1602179055509050507f828959715a11324307775d7f987630518a1e7c1fe335e54c45d7b6ba188f40d1600760006002548152602001908152602001600020600001546040518082815260200191505060405180910390a15050505050565b806000600760008381526020019081526020016000206000015411151561197a576040517f08c379a00000000000000000000000000000000000000000000000000000000081526004018080602001828103825260258152602001807f426f74746c65207769746820676976656e2055504320646f6573206e6f74206581526020017f786973742e00000000000000000000000000000000000000000000000000000081525060400191505060405180910390fd5b81600280600481111561198957fe5b6007600084815260200190815260200160002060110160009054906101000a900460ff1660048111156119b857fe5b141515611a53576040517f08c379a000000000000000000000000000000000000000000000000000000000815260040180806020018281038252602b8152602001807f43757272656e7420626f74746c6520737461746520666f72626964732074686981526020017f73206f7065726174696f6e00000000000000000000000000000000000000000081525060400191505060405180910390fd5b6007600085815260200190815260200160002060120160009054906101000a900473ffffffffffffffffffffffffffffffffffffffff168073ffffffffffffffffffffffffffffffffffffffff163373ffffffffffffffffffffffffffffffffffffffff16141515611b53576040517f08c379a000000000000000000000000000000000000000000000000000000000815260040180806020018281038252602d8152602001807f43757272656e742063616c6c65722063616e206e6f7420696e766f6b6520746881526020017f6973206f7065726174696f6e2e0000000000000000000000000000000000000081525060400191505060405180910390fd5b60036007600087815260200190815260200160002060110160006101000a81548160ff02191690836004811115611b8657fe5b02179055507feadb31747ffb466bab04b4eab11e35f07d9753cf4391303cd8b043239cf1e0f6856040518082815260200191505060405180910390a15050505050565b600160045401600481905550611bdd614767565b60606040519081016040528085815260200184815260200186815250905060a06040519081016040528060045481526020018781526020013373ffffffffffffffffffffffffffffffffffffffff16815260200183815260200182815250600560006004548152602001908152602001600020600082015181600001556020820151816001019080519060200190611c769291906146e7565b5060408201518160020160006101000a81548173ffffffffffffffffffffffffffffffffffffffff021916908373ffffffffffffffffffffffffffffffffffffffff1602179055506060820151816003019080519060200190611cda9291906146e7565b506080820151816004016000820151816000019080519060200190611d009291906146e7565b506020820151816001019080519060200190611d1d9291906146e7565b506040820151816002019080519060200190611d3a9291906146e7565b5050509050507fadcbbe61c5d6ff6673093971416854cb6caf33849661e18c72646f0e1ca01bbb6004546040518082815260200191505060405180910390a1505050505050565b6005600082815260200190815260200160002060020160009054906101000a900473ffffffffffffffffffffffffffffffffffffffff168073ffffffffffffffffffffffffffffffffffffffff163373ffffffffffffffffffffffffffffffffffffffff16141515611e81576040517f08c379a000000000000000000000000000000000000000000000000000000000815260040180806020018281038252602d8152602001807f43757272656e742063616c6c65722063616e206e6f7420696e766f6b6520746881526020017f6973206f7065726174696f6e2e0000000000000000000000000000000000000081525060400191505060405180910390fd5b600180540160018190555060e06040519081016040528060015481526020018681526020018581526020013373ffffffffffffffffffffffffffffffffffffffff16815260200184815260200160006002811115611edb57fe5b81526020016005600085815260200190815260200160002060a0604051908101604052908160008201548152602001600182018054600181600116156101000203166002900480601f016020809104026020016040519081016040528092919081815260200182805460018160011615610100020316600290048015611fa25780601f10611f7757610100808354040283529160200191611fa2565b820191906000526020600020905b815481529060010190602001808311611f8557829003601f168201915b505050505081526020016002820160009054906101000a900473ffffffffffffffffffffffffffffffffffffffff1673ffffffffffffffffffffffffffffffffffffffff1673ffffffffffffffffffffffffffffffffffffffff168152602001600382018054600181600116156101000203166002900480601f01602080910402602001604051908101604052809291908181526020018280546001816001161561010002031660029004801561209a5780601f1061206f5761010080835404028352916020019161209a565b820191906000526020600020905b81548152906001019060200180831161207d57829003601f168201915b505050505081526020016004820160606040519081016040529081600082018054600181600116156101000203166002900480601f01602080910402602001604051908101604052809291908181526020018280546001816001161561010002031660029004801561214d5780601f106121225761010080835404028352916020019161214d565b820191906000526020600020905b81548152906001019060200180831161213057829003601f168201915b50505050508152602001600182018054600181600116156101000203166002900480601f0160208091040260200160405190810160405280929190818152602001828054600181600116156101000203166002900480156121ef5780601f106121c4576101008083540402835291602001916121ef565b820191906000526020600020905b8154815290600101906020018083116121d257829003601f168201915b50505050508152602001600282018054600181600116156101000203166002900480601f0160208091040260200160405190810160405280929190818152602001828054600181600116156101000203166002900480156122915780601f1061226657610100808354040283529160200191612291565b820191906000526020600020905b81548152906001019060200180831161227457829003601f168201915b505050505081525050815250508152506006600060015481526020019081526020016000206000820151816000015560208201518160010190805190602001906122dc9291906146e7565b506040820151816002015560608201518160030160006101000a81548173ffffffffffffffffffffffffffffffffffffffff021916908373ffffffffffffffffffffffffffffffffffffffff160217905550608082015181600401908051906020019061234a9291906146e7565b5060a08201518160050160006101000a81548160ff0219169083600281111561236f57fe5b021790555060c0820151816006016000820151816000015560208201518160010190805190602001906123a39291906146e7565b5060408201518160020160006101000a81548173ffffffffffffffffffffffffffffffffffffffff021916908373ffffffffffffffffffffffffffffffffffffffff16021790555060608201518160030190805190602001906124079291906146e7565b50608082015181600401600082015181600001908051906020019061242d9291906146e7565b50602082015181600101908051906020019061244a9291906146e7565b5060408201518160020190805190602001906124679291906146e7565b50505050509050507fe98cb48b7c65f60e2a8d0b20a8dbaac7cc3c2c897044fe92d5f5d3f97382ca756001546040518082815260200191505060405180910390a15050505050565b6000606080606080600060608760006005600083815260200190815260200160002060000154111515612570576040517f08c379a00000000000000000000000000000000000000000000000000000000081526004018080602001828103825260218152602001807f4661726d2077697468207468697320696420646f6573206e6f7420657869737481526020017f2e0000000000000000000000000000000000000000000000000000000000000081525060400191505060405180910390fd5b600560008a8152602001908152602001600020600001549750600560008a81526020019081526020016000206001018054600181600116156101000203166002900480601f0160208091040260200160405190810160405280929190818152602001828054600181600116156101000203166002900480156126335780601f1061260857610100808354040283529160200191612633565b820191906000526020600020905b81548152906001019060200180831161261657829003601f168201915b50505050509650600560008a81526020019081526020016000206004016002018054600181600116156101000203166002900480601f0160208091040260200160405190810160405280929190818152602001828054600181600116156101000203166002900480156126e75780601f106126bc576101008083540402835291602001916126e7565b820191906000526020600020905b8154815290600101906020018083116126ca57829003601f168201915b50505050509550600560008a81526020019081526020016000206004016000018054600181600116156101000203166002900480601f01602080910402602001604051908101604052809291908181526020018280546001816001161561010002031660029004801561279b5780601f106127705761010080835404028352916020019161279b565b820191906000526020600020905b81548152906001019060200180831161277e57829003601f168201915b50505050509450600560008a81526020019081526020016000206004016001018054600181600116156101000203166002900480601f01602080910402602001604051908101604052809291908181526020018280546001816001161561010002031660029004801561284f5780601f106128245761010080835404028352916020019161284f565b820191906000526020600020905b81548152906001019060200180831161283257829003601f168201915b50505050509350600560008a815260200190815260200160002060020160009054906101000a900473ffffffffffffffffffffffffffffffffffffffff169250600560008a81526020019081526020016000206003018054600181600116156101000203166002900480601f0160208091040260200160405190810160405280929190818152602001828054600181600116156101000203166002900480156129395780601f1061290e57610100808354040283529160200191612939565b820191906000526020600020905b81548152906001019060200180831161291c57829003601f168201915b5050505050915050919395979092949650565b8060006006600083815260200190815260200160002060000154111515612a01576040517f08c379a00000000000000000000000000000000000000000000000000000000081526004018080602001828103825260228152602001807f47726170652077697468207468697320696420646f6573206e6f74206578697381526020017f742e00000000000000000000000000000000000000000000000000000000000081525060400191505060405180910390fd5b816001806002811115612a1057fe5b6006600084815260200190815260200160002060050160009054906101000a900460ff166002811115612a3f57fe5b141515612ada576040517f08c379a000000000000000000000000000000000000000000000000000000000815260040180806020018281038252602b8152602001807f43757272656e7420677261706520737461746520666f7262696473207468697381526020017f206f7065726174696f6e2e00000000000000000000000000000000000000000081525060400191505060405180910390fd5b6006600085815260200190815260200160002060030160009054906101000a900473ffffffffffffffffffffffffffffffffffffffff168073ffffffffffffffffffffffffffffffffffffffff163373ffffffffffffffffffffffffffffffffffffffff16141515612bda576040517f08c379a000000000000000000000000000000000000000000000000000000000815260040180806020018281038252602d8152602001807f43757272656e742063616c6c65722063616e206e6f7420696e766f6b6520746881526020017f6973206f7065726174696f6e2e0000000000000000000000000000000000000081525060400191505060405180910390fd5b60026006600087815260200190815260200160002060050160006101000a81548160ff02191690836002811115612c0d57fe5b02179055507fab4e083d47498761f5a8b87ff77047fdc1fc57ebedec794b2a100a2432687d4d856040518082815260200191505060405180910390a15050505050565b8160006007600083815260200190815260200160002060000154111515612d05576040517f08c379a00000000000000000000000000000000000000000000000000000000081526004018080602001828103825260258152602001807f426f74746c65207769746820676976656e2055504320646f6573206e6f74206581526020017f786973742e00000000000000000000000000000000000000000000000000000081525060400191505060405180910390fd5b826000806004811115612d1457fe5b6007600084815260200190815260200160002060110160009054906101000a900460ff166004811115612d4357fe5b141515612dde576040517f08c379a000000000000000000000000000000000000000000000000000000000815260040180806020018281038252602b8152602001807f43757272656e7420626f74746c6520737461746520666f72626964732074686981526020017f73206f7065726174696f6e00000000000000000000000000000000000000000081525060400191505060405180910390fd5b83600081111515612e57576040517f08c379a00000000000000000000000000000000000000000000000000000000081526004018080602001828103825260168152602001807f50726963652063616e206e6f74206265207a65726f2e0000000000000000000081525060200191505060405180910390fd5b6007600087815260200190815260200160002060120160009054906101000a900473ffffffffffffffffffffffffffffffffffffffff168073ffffffffffffffffffffffffffffffffffffffff163373ffffffffffffffffffffffffffffffffffffffff16141515612f57576040517f08c379a000000000000000000000000000000000000000000000000000000000815260040180806020018281038252602d8152602001807f43757272656e742063616c6c65722063616e206e6f7420696e766f6b6520746881526020017f6973206f7065726174696f6e2e0000000000000000000000000000000000000081525060400191505060405180910390fd5b85600760008981526020019081526020016000206010018190555060016007600089815260200190815260200160002060110160006101000a81548160ff02191690836004811115612fa557fe5b02179055507f6904282de368bf5aefab4b35cb4ebadac5101c8c247bde31c582973491908f96876040518082815260200191505060405180910390a150505050505050565b806000600760008381526020019081526020016000206000015411151561309f576040517f08c379a00000000000000000000000000000000000000000000000000000000081526004018080602001828103825260258152602001807f426f74746c65207769746820676976656e2055504320646f6573206e6f74206581526020017f786973742e00000000000000000000000000000000000000000000000000000081525060400191505060405180910390fd5b8160018060048111156130ae57fe5b6007600084815260200190815260200160002060110160009054906101000a900460ff1660048111156130dd57fe5b141515613178576040517f08c379a000000000000000000000000000000000000000000000000000000000815260040180806020018281038252602b8152602001807f43757272656e7420626f74746c6520737461746520666f72626964732074686981526020017f73206f7065726174696f6e00000000000000000000000000000000000000000081525060400191505060405180910390fd5b6007600085815260200190815260200160002060120160009054906101000a900473ffffffffffffffffffffffffffffffffffffffff168073ffffffffffffffffffffffffffffffffffffffff163373ffffffffffffffffffffffffffffffffffffffff1614151515613279576040517f08c379a000000000000000000000000000000000000000000000000000000000815260040180806020018281038252602d8152602001807f43757272656e742063616c6c65722063616e206e6f7420696e766f6b6520746881526020017f6973206f7065726174696f6e2e0000000000000000000000000000000000000081525060400191505060405180910390fd5b600760008681526020019081526020016000206010015480341015151561332e576040517f08c379a00000000000000000000000000000000000000000000000000000000081526004018080602001828103825260318152602001807f426964207072696365206d757374206265206d6f7265206f7220657175616c2081526020017f746f20626f74746c65277320707269636500000000000000000000000000000081525060400191505060405180910390fd5b85336007600089815260200190815260200160002060110160016101000a81548173ffffffffffffffffffffffffffffffffffffffff021916908373ffffffffffffffffffffffffffffffffffffffff16021790555060026007600089815260200190815260200160002060110160006101000a81548160ff021916908360048111156133b757fe5b02179055506007600088815260200190815260200160002060120160009054906101000a900473ffffffffffffffffffffffffffffffffffffffff1673ffffffffffffffffffffffffffffffffffffffff166108fc600760008a8152602001908152602001600020601001549081150290604051600060405180830381858888f1935050505015801561344e573d6000803e3d6000fd5b507f06c8b9036ad35e1bc39258db53d9a09487eccffbff2faef0d7c27c73d9549af8876040518082815260200191505060405180910390a1600060076000838152602001908152602001600020601001549050600081340390506007600084815260200190815260200160002060110160019054906101000a900473ffffffffffffffffffffffffffffffffffffffff1673ffffffffffffffffffffffffffffffffffffffff166108fc829081150290604051600060405180830381858888f19350505050158015613524573d6000803e3d6000fd5b50505050505050505050565b80600060076000838152602001908152602001600020600001541115156135e5576040517f08c379a00000000000000000000000000000000000000000000000000000000081526004018080602001828103825260258152602001807f426f74746c65207769746820676976656e2055504320646f6573206e6f74206581526020017f786973742e00000000000000000000000000000000000000000000000000000081525060400191505060405180910390fd5b8160008060048111156135f457fe5b6007600084815260200190815260200160002060110160009054906101000a900460ff16600481111561362357fe5b1415156136be576040517f08c379a000000000000000000000000000000000000000000000000000000000815260040180806020018281038252602b8152602001807f43757272656e7420626f74746c6520737461746520666f72626964732074686981526020017f73206f7065726174696f6e00000000000000000000000000000000000000000081525060400191505060405180910390fd5b6007600085815260200190815260200160002060120160009054906101000a900473ffffffffffffffffffffffffffffffffffffffff168073ffffffffffffffffffffffffffffffffffffffff163373ffffffffffffffffffffffffffffffffffffffff161415156137be576040517f08c379a000000000000000000000000000000000000000000000000000000000815260040180806020018281038252602d8152602001807f43757272656e742063616c6c65722063616e206e6f7420696e766f6b6520746881526020017f6973206f7065726174696f6e2e0000000000000000000000000000000000000081525060400191505060405180910390fd5b60046007600087815260200190815260200160002060110160006101000a81548160ff021916908360048111156137f157fe5b02179055507f1089cc46981bb4f9492cd678d98501379feafc55495189d4ffae0521e1a986b2856040518082815260200191505060405180910390a15050505050565b6000806000806000806060600088600060076000838152602001908152602001600020600001541115156138f6576040517f08c379a00000000000000000000000000000000000000000000000000000000081526004018080602001828103825260258152602001807f426f74746c65207769746820676976656e2055504320646f6573206e6f74206581526020017f786973742e00000000000000000000000000000000000000000000000000000081525060400191505060405180910390fd5b899850600760008b8152602001908152602001600020600101549750600760008b8152602001908152602001600020600201549650600760008b8152602001908152602001600020601001549550600760008b815260200190815260200160002060120160009054906101000a900473ffffffffffffffffffffffffffffffffffffffff169450600760008b815260200190815260200160002060110160019054906101000a900473ffffffffffffffffffffffffffffffffffffffff169350600760008b81526020019081526020016000206003016000015491506000600760008c815260200190815260200160002060110160009054906101000a900460ff166004811115613a0357fe5b1415613a42576040805190810160405280600581526020017f4f776e656400000000000000000000000000000000000000000000000000000081525092505b6001600760008c815260200190815260200160002060110160009054906101000a900460ff166004811115613a7357fe5b1415613ab2576040805190810160405280600881526020017f466f722053616c6500000000000000000000000000000000000000000000000081525092505b6002600760008c815260200190815260200160002060110160009054906101000a900460ff166004811115613ae357fe5b1415613b22576040805190810160405280600481526020017f536f6c640000000000000000000000000000000000000000000000000000000081525092505b6003600760008c815260200190815260200160002060110160009054906101000a900460ff166004811115613b5357fe5b1415613b92576040805190810160405280600781526020017f536869707065640000000000000000000000000000000000000000000000000081525092505b6004600760008c815260200190815260200160002060110160009054906101000a900460ff166004811115613bc357fe5b1415613c02576040805190810160405280600881526020017f436f6e73756d656400000000000000000000000000000000000000000000000081525092505b50919395975091939597565b8060006006600083815260200190815260200160002060000154111515613cc3576040517f08c379a00000000000000000000000000000000000000000000000000000000081526004018080602001828103825260228152602001807f47726170652077697468207468697320696420646f6573206e6f74206578697381526020017f742e00000000000000000000000000000000000000000000000000000000000081525060400191505060405180910390fd5b816000806002811115613cd257fe5b6006600084815260200190815260200160002060050160009054906101000a900460ff166002811115613d0157fe5b141515613d9c576040517f08c379a000000000000000000000000000000000000000000000000000000000815260040180806020018281038252602b8152602001807f43757272656e7420677261706520737461746520666f7262696473207468697381526020017f206f7065726174696f6e2e00000000000000000000000000000000000000000081525060400191505060405180910390fd5b6006600085815260200190815260200160002060030160009054906101000a900473ffffffffffffffffffffffffffffffffffffffff168073ffffffffffffffffffffffffffffffffffffffff163373ffffffffffffffffffffffffffffffffffffffff16141515613e9c576040517f08c379a000000000000000000000000000000000000000000000000000000000815260040180806020018281038252602d8152602001807f43757272656e742063616c6c65722063616e206e6f7420696e766f6b6520746881526020017f6973206f7065726174696f6e2e0000000000000000000000000000000000000081525060400191505060405180910390fd5b60016006600087815260200190815260200160002060050160006101000a81548160ff02191690836002811115613ecf57fe5b02179055507fced135a0bd149c52016b64e0ccaf9051975eabce7a661dbf246ea4c874e810a5856040518082815260200191505060405180910390a15050505050565b6000606060006060806000808760006006600083815260200190815260200160002060000154111515613fd3576040517f08c379a00000000000000000000000000000000000000000000000000000000081526004018080602001828103825260228152602001807f47726170652077697468207468697320696420646f6573206e6f74206578697381526020017f742e00000000000000000000000000000000000000000000000000000000000081525060400191505060405180910390fd5b889750600660008a81526020019081526020016000206001018054600181600116156101000203166002900480601f0160208091040260200160405190810160405280929190818152602001828054600181600116156101000203166002900480156140805780601f1061405557610100808354040283529160200191614080565b820191906000526020600020905b81548152906001019060200180831161406357829003601f168201915b50505050509650600660008a8152602001908152602001600020600201549550600660008a8152602001908152602001600020600601600001549250600660008a81526020019081526020016000206004018054600181600116156101000203166002900480601f0160208091040260200160405190810160405280929190818152602001828054600181600116156101000203166002900480156141665780601f1061413b57610100808354040283529160200191614166565b820191906000526020600020905b81548152906001019060200180831161414957829003601f168201915b50505050509350600660008a815260200190815260200160002060030160009054906101000a900473ffffffffffffffffffffffffffffffffffffffff1691506000600660008b815260200190815260200160002060050160009054906101000a900460ff1660028111156141d757fe5b1415614216576040805190810160405280600981526020017f486172766573746564000000000000000000000000000000000000000000000081525094505b6001600660008b815260200190815260200160002060050160009054906101000a900460ff16600281111561424757fe5b1415614286576040805190810160405280600781526020017f507265737365640000000000000000000000000000000000000000000000000081525094505b6002600660008b815260200190815260200160002060050160009054906101000a900460ff1660028111156142b757fe5b14156142f6576040805190810160405280600981526020017f4665726d656e746564000000000000000000000000000000000000000000000081525094505b50919395979092949650565b80600060076000838152602001908152602001600020600001541115156143b7576040517f08c379a00000000000000000000000000000000000000000000000000000000081526004018080602001828103825260258152602001807f426f74746c65207769746820676976656e2055504320646f6573206e6f74206581526020017f786973742e00000000000000000000000000000000000000000000000000000081525060400191505060405180910390fd5b8160038060048111156143c657fe5b6007600084815260200190815260200160002060110160009054906101000a900460ff1660048111156143f557fe5b141515614490576040517f08c379a000000000000000000000000000000000000000000000000000000000815260040180806020018281038252602b8152602001807f43757272656e7420626f74746c6520737461746520666f72626964732074686981526020017f73206f7065726174696f6e00000000000000000000000000000000000000000081525060400191505060405180910390fd5b6007600085815260200190815260200160002060110160019054906101000a900473ffffffffffffffffffffffffffffffffffffffff168073ffffffffffffffffffffffffffffffffffffffff163373ffffffffffffffffffffffffffffffffffffffff16141515614590576040517f08c379a000000000000000000000000000000000000000000000000000000000815260040180806020018281038252602d8152602001807f43757272656e742063616c6c65722063616e206e6f7420696e766f6b6520746881526020017f6973206f7065726174696f6e2e0000000000000000000000000000000000000081525060400191505060405180910390fd5b6007600086815260200190815260200160002060110160019054906101000a900473ffffffffffffffffffffffffffffffffffffffff166007600087815260200190815260200160002060120160006101000a81548173ffffffffffffffffffffffffffffffffffffffff021916908373ffffffffffffffffffffffffffffffffffffffff16021790555060006007600087815260200190815260200160002060110160016101000a81548173ffffffffffffffffffffffffffffffffffffffff021916908373ffffffffffffffffffffffffffffffffffffffff16021790555060006007600087815260200190815260200160002060110160006101000a81548160ff021916908360048111156146a457fe5b02179055507f828959715a11324307775d7f987630518a1e7c1fe335e54c45d7b6ba188f40d1856040518082815260200191505060405180910390a15050505050565b828054600181600116156101000203166002900490600052602060002090601f016020900481019282601f1061472857805160ff1916838001178555614756565b82800160010185558215614756579182015b8281111561475557825182559160200191906001019061473a565b5b5090506147639190614789565b5090565b6060604051908101604052806060815260200160608152602001606081525090565b6147ab91905b808211156147a757600081600090555060010161478f565b5090565b9056fea165627a7a72305820957793e34c7098fa8b1241501ee8a70064b1de3cf93e6ac88f49543d75123f440029",
  "source": "pragma solidity ^0.5.0;\n\ncontract Wine {\n    address contractOwner;\n    uint lastGrapeId;\n    uint lastBottleUpc;\n    uint lastBottleSku;\n    uint lastFarmId;\n\n    // Location will be simple value object, that encapsulates location related info\n    struct Location {\n        string longitude;\n        string latitude;\n        string name;\n    }\n\n    // We are in wine business, so we have the Farm\n    struct Farm {\n        uint farmId;\n        string name;\n        address payable owner;\n        string description;\n        Location location;\n    }\n    mapping (uint => Farm) farms;\n    event FarmRegistered(uint farmId);\n\n    enum GrapeState {Harvested, Pressed, Fermented}\n    struct WineGrape {\n        uint grapeId; // id of the Wine Grape vintage\n        string name;\n        uint vintageYear;\n        address payable owner;\n        string notes;\n        GrapeState state;\n        Farm farm;\n    }\n    mapping (uint => WineGrape) grapes;\n    event GrapeHarvested(uint grapeId);\n    event GrapePressed(uint grapeId);\n    event GrapeFermented(uint grapeId);\n\n    enum BottleState {Owned, ForSale, Sold, Shipped, Consumed}\n    struct BottleOfWine {\n        uint upc; // universal product code of the Bottle - the primary key\n        uint sku; // stock keeping id - I have no idea, why do we have it, if contract does not use it\n        uint productId; // product id is upc + sku - again, I have no idea, why do we have it, if contract does not use it\n        WineGrape grape;\n        uint price;\n        BottleState state;\n        address payable buyer;\n        address payable owner; // it will replace odd seller and buyer properties of the Bottle\n    }\n    mapping (uint => BottleOfWine) bottles;\n    event BottleOwned(uint upc);\n    event BottleForSale(uint upc);\n    event BottleSold(uint upc);\n    event BottleShipped(uint upc);\n    event BottleConsumed(uint upc);\n\n    modifier verifyCallerIs(address _address){\n        require(msg.sender == _address, \"Current caller can not invoke this operation.\");\n        _;\n    }\n\n    modifier verifyCallerIsNot(address _address) {\n        require(msg.sender != _address, \"Current caller can not invoke this operation.\");\n        _;\n    }\n\n    modifier farmExists(uint _farmId) {\n        require(farms[_farmId].farmId > 0, \"Farm with this id does not exist.\");\n        _;\n    }\n\n    modifier grapeExists(uint _grapeId) {\n        require(grapes[_grapeId].grapeId > 0, \"Grape with this id does not exist.\");\n        _;\n    }\n\n    modifier verifyGrapeState(uint _grapeId, GrapeState _state) {\n        require(grapes[_grapeId].state == _state, \"Current grape state forbids this operation.\");\n        _;\n    }\n\n    modifier bottleExists(uint _upc) {\n        require(bottles[_upc].upc > 0, \"Bottle with given UPC does not exist.\");\n        _;\n    }\n\n    modifier verifyBottleState(uint _upc, BottleState _state) {\n        require(bottles[_upc].state == _state, \"Current bottle state forbids this operation\");\n        _;\n    }\n\n    modifier priceNotZero(uint _price) {\n        require(_price > 0, \"Price can not be zero.\");\n        _;\n    }\n\n    modifier isPaidEnough(uint _price) {\n        require(msg.value >= _price, \"Bid price must be more or equal to bottle's price\");\n        _;\n    }\n\n    modifier returnChangeForExcess(uint _upc) {\n        _;\n        uint _price = bottles[_upc].price;\n        uint change = msg.value - _price;\n        bottles[_upc].buyer.transfer(change);\n    }\n\n    constructor() public {\n        contractOwner = msg.sender;\n        lastGrapeId = 0;\n        lastBottleUpc = 0;\n        lastFarmId = 0;\n    }\n\n    // Farm Transactions\n    function registerFarm(string memory _farmName, string memory _locationName, string memory _locationLong, string memory _locationLat, string memory _farmDescription) public\n    {\n        lastFarmId = lastFarmId + 1;\n        Location memory location = Location({name: _locationName, longitude: _locationLong, latitude: _locationLat});\n        farms[lastFarmId] = Farm(\n            {farmId: lastFarmId,\n            name: _farmName,\n            location: location,\n            owner: msg.sender,\n            description: _farmDescription});\n        emit FarmRegistered(lastFarmId);\n    }\n    function getFarm(uint _farmId) public view\n    farmExists(_farmId)\n    returns (uint farmId, string memory name, string memory locationName, string memory longitude, string memory latitude, address owner, string memory description){\n        farmId = farms[_farmId].farmId;\n        name = farms[_farmId].name;\n        locationName = farms[_farmId].location.name;\n        longitude = farms[_farmId].location.longitude;\n        latitude = farms[_farmId].location.latitude;\n        owner = farms[_farmId].owner;\n        description = farms[_farmId].description;\n    }\n\n    // Grapes Transactions\n    function harvestGrape(string memory _name, uint _vintageYear, string memory _notes, uint _farmId) public\n    verifyCallerIs(farms[_farmId].owner) {\n        lastGrapeId = lastGrapeId + 1;\n        grapes[lastGrapeId] = WineGrape(\n            {grapeId: lastGrapeId,\n            name: _name,\n            vintageYear: _vintageYear,\n            owner: msg.sender,\n            notes: _notes,\n            state: GrapeState.Harvested,\n            farm: farms[_farmId]});\n        emit GrapeHarvested(lastGrapeId);\n    }\n\n    function pressGrape(uint _grapeId) public\n    grapeExists(_grapeId)\n    verifyGrapeState(_grapeId, GrapeState.Harvested)\n    verifyCallerIs(grapes[_grapeId].owner) {\n        grapes[_grapeId].state = GrapeState.Pressed;\n        emit GrapePressed(_grapeId);\n    }\n\n    function fermentGrape(uint _grapeId) public\n    grapeExists(_grapeId)\n    verifyGrapeState(_grapeId, GrapeState.Pressed)\n    verifyCallerIs(grapes[_grapeId].owner) {\n        grapes[_grapeId].state = GrapeState.Fermented;\n        emit GrapeFermented(_grapeId);\n    }\n\n    function getGrape(uint _grapeId) public view\n    grapeExists(_grapeId)\n    returns (uint grapeId, string memory name, uint vintageYear, string memory state, string memory notes, uint farmId, address owner){\n        grapeId = _grapeId;\n        name = grapes[_grapeId].name;\n        vintageYear = grapes[_grapeId].vintageYear;\n        farmId = grapes[_grapeId].farm.farmId;\n        notes = grapes[_grapeId].notes;\n        owner = grapes[_grapeId].owner;\n\n        if(uint(grapes[_grapeId].state) == 0) {\n            state = \"Harvested\";\n        }\n        if(uint(grapes[_grapeId].state) == 1) {\n            state = \"Pressed\";\n        }\n        if(uint(grapes[_grapeId].state) == 2) {\n            state = \"Fermented\";\n        }\n    }\n\n    // Bottle Transactions\n    function createBottle(uint _grapeId) public\n    grapeExists(_grapeId)\n    verifyGrapeState(_grapeId, GrapeState.Fermented)\n    verifyCallerIs(grapes[_grapeId].owner)   {\n        lastBottleUpc = lastBottleUpc + 1;\n        lastBottleSku = lastBottleSku + 1;\n        bottles[lastBottleUpc] = BottleOfWine(\n            {grape: grapes[_grapeId],\n            upc: lastBottleUpc,\n            sku: lastBottleSku,\n            productId: lastBottleSku + lastBottleUpc, // it's odd, but i have to return productId b/c of project requirements\n            price: 0,\n            state: BottleState.Owned,\n            owner: msg.sender,\n            buyer: address(0)}\n        );\n        emit BottleOwned(bottles[lastBottleUpc].upc);\n    }\n\n    function addBottleForSale(uint _upc, uint _price) public\n    bottleExists(_upc)\n    verifyBottleState(_upc, BottleState.Owned)\n    priceNotZero(_price)\n    verifyCallerIs(bottles[_upc].owner)  {\n        bottles[_upc].price = _price;\n        bottles[_upc].state = BottleState.ForSale;\n        emit BottleForSale(_upc);\n    }\n\n    function buyBottle(uint _upc) public payable\n    bottleExists(_upc)\n    verifyBottleState(_upc, BottleState.ForSale)\n    verifyCallerIsNot(bottles[_upc].owner)\n    isPaidEnough(bottles[_upc].price)\n    returnChangeForExcess(_upc) {\n        bottles[_upc].buyer = msg.sender;\n        bottles[_upc].state = BottleState.Sold;\n        bottles[_upc].owner.transfer(bottles[_upc].price);\n        emit BottleSold(_upc);\n    }\n\n    function shipBottle(uint _upc) public\n    bottleExists(_upc)\n    verifyBottleState(_upc, BottleState.Sold)\n    verifyCallerIs(bottles[_upc].owner) {\n        bottles[_upc].state = BottleState.Shipped;\n        emit BottleShipped(_upc);\n    }\n\n    function receiveBottle(uint _upc) public\n    bottleExists(_upc)\n    verifyBottleState(_upc, BottleState.Shipped)\n    verifyCallerIs(bottles[_upc].buyer) {\n        bottles[_upc].owner = bottles[_upc].buyer;\n        bottles[_upc].buyer = address(0);\n        bottles[_upc].state = BottleState.Owned;\n        emit BottleOwned(_upc);\n    }\n\n    function consumeBottle(uint _upc) public\n    bottleExists(_upc)\n    verifyBottleState(_upc, BottleState.Owned)\n    verifyCallerIs(bottles[_upc].owner) {\n        bottles[_upc].state = BottleState.Consumed;\n        emit BottleConsumed(_upc);\n    }\n\n    function getBottle(uint _upc) public view\n    bottleExists(_upc)\n    returns (uint upc, uint sku, uint productId, uint price, address owner, address buyer, string memory state, uint grapeId) {\n        upc = _upc;\n        sku = bottles[_upc].sku;\n        productId = bottles[_upc].productId;\n        price = bottles[_upc].price;\n        owner = bottles[_upc].owner;\n        buyer = bottles[_upc].buyer;\n        grapeId = bottles[_upc].grape.grapeId;\n\n        if(uint(bottles[_upc].state) == 0) {\n            state = \"Owned\";\n        }\n        if(uint(bottles[_upc].state) == 1) {\n            state = \"For Sale\";\n        }\n        if(uint(bottles[_upc].state) == 2) {\n            state = \"Sold\";\n        }\n        if(uint(bottles[_upc].state) == 3) {\n            state = \"Shipped\";\n        }\n        if(uint(bottles[_upc].state) == 4) {\n            state = \"Consumed\";\n        }\n    }\n}",
  "sourcePath": "/Users/py/IdeaProjects/wine-supply-chain/contracts/winebase/Wine.sol",
  "compiler": {
    "name": "solc",
    "version": "0.5.0+commit.1d4f565a.Emscripten.clang"
  },
  "schemaVersion": "3.0.2",
  "updatedAt": "2019-03-25T10:17:48.734Z",
  "devdoc": {
    "methods": {}
  },
  "userdoc": {
    "methods": {}
  }
}